:020000040800F2
:10000000F80C002021030008493B0008413B000890
:10001000453B000821060008154900083303000885
:10002000000000000000000000000000293D000862
:1000300025060008000000004D3B00082D3D00088B
:100040003D0300083D0300083D0300083D03000890
:100050003D0300083D0300083D0300083D03000880
:100060003D0300083D0300083D0300083D03000870
:100070003D0300083D0300083D0300083D03000860
:100080003D0300083D0300083D0300083D03000850
:100090003D0300083D0300083D0300083D03000840
:1000A000290600083D0300083D0300083D03000841
:1000B0003D0300083D0300083D0300083D03000820
:1000C0003D0300083D0300083D0300083D03000810
:1000D0003D0300083D0300083D0300083D03000800
:1000E0003D0300083D0300083D0300083D030008F0
:1000F0003D0300083D0300083D0300083D030008E0
:100100003D0300083D0300083D0300083D030008CF
:100110003D0300083D0300083D0300083D030008BF
:100120003D0300083D0300083D0300083D030008AF
:100130003D0300083D0300083D0300083D0300089F
:100140003D0300083D0300083D0300083D0300088F
:100150003D0300083D0300083D0300083D0300087F
:1001600000000000000000007D4300083D0300087F
:100170003D0300083D0300083D0300083D0300085F
:100180003D0300083D0300083D0300080000000097
:10019000000000003D030008000000000000000017
:1001A00000000000000000003D0300083D030008BF
:1001B0003D0300083D0300083D0300083D0300081F
:1001C0003D0300083D03000800000000000000009F
:1001D0000000000000000000000000003D030008D7
:1001E0003D0300083D03000800000000000000007F
:1001F0003D0300083D0300083D0300080000000027
:10020000000000003D0300083D0300083D03000816
:100210003D0300083D0300083D0300083D030008BE
:100220003D03000800000000000000003D0300083E
:100230003D03000800000000000000000000000076
:100240000000000000000000000000003D03000866
:100250003D03000800F002F800F052F814A696E8FA
:10026000000CB244B344DA4501D100F049F8BAE8D1
:100270000F000FA696E83000A5EB040504EB060777
:10028000AAEB0704A7F101074FEA15154FEA34144A
:10029000A4F10104AC4201D300F032F813F0010FD5
:1002A00018BFFB1A43F0010300F001F8DBE7184721
:1002B000D8610000F8610000103A24BF78C878C106
:1002C000FAD8520724BF30C830C144BF04680C605C
:1002D000704700007047000000230024002500261E
:1002E000103A28BF78C1FBD8520728BF30C148BF99
:1002F0000B6070471FB506F07DF81FBD10B510BD2F
:1003000000F049F91146FFF7F5FF05F001F900F09B
:1003100067F903B4FFF7F2FF03BC00F06FF90000C8
:100320000A4880470A480047FEE7FEE7FEE7FEE787
:10033000FEE7FEE7FEE7FEE7FEE7FEE7FEE700007A
:1003400004480549054A064B70470000E13D000896
:1003500055020008F8060020F80C0020F8080020DC
:10036000F808002053EA020C00F069802DE9F04BF8
:100370004FF00006002B1FBFB3FA83F503FA05F414
:1003800024FA05F65E4012BF1643B2FA82F502FA6D
:1003900005F4C5F120051EBF22FA05FC44EA0C0451
:1003A000203556EA044C4FEA144418BF641C4FF041
:1003B00000084FF00009904271EB030C39D300297B
:1003C00019BFB1FA81F701FA07F6B0FA80F700FA1F
:1003D00007F6C7F120071EBF20FA07FC46EA0C0605
:1003E0002037B6FBF4FCA7EB0507103F07F01F0B07
:1003F000CBF120062CFA06F60CFA0BFB44BFB346F1
:100400000026202FA4BF5E464FF0000B5BEA060CCF
:1004100008BF4FF0010B19EB0B0948EB0608ABFBCB
:10042000027C06FB02CC0BFB03CCC01B71EB0C0166
:10043000C1E70B46024641464846BDE8F08B13B57E
:10044000084318BF4FF0FF300146AFF30080BDE80E
:100450001C407047032A40F2308010F0030C00F07B
:10046000158011F8013BBCF1020F624498BF11F8EE
:1004700001CB00F8013B38BF11F8013BA2F10402A7
:1004800098BF00F801CB38BF00F8013B11F003031F
:1004900000F04F80083AC0F0088051F8043B083A59
:1004A00051F804CBA0E80810F5E7121D5CBF51F825
:1004B000043B40F8043BAFF30080D20724BF11F89F
:1004C000013B11F801CB48BF11F8012B24BF00F804
:1004D000013B00F801CB48BF00F8012B70474FF0FB
:1004E000000200B5134694469646203922BFA0E884
:1004F0000C50A0E80C50B1F12001BFF4F7AF090790
:1005000028BFA0E80C5048BF0CC05DF804EB890080
:1005100028BF40F8042B08BF704748BF20F8022BC3
:1005200011F0804F18BF00F8012B704770477047DB
:10053000704710B5203AC0F00B80B1E81850A0E821
:100540001850B1E81850A0E81850203ABFF4F5AFA1
:100550005FEA027C24BFB1E81850A0E8185044BFFD
:1005600018C918C0BDE810405FEA827C24BF51F86A
:10057000043B40F8043B08BF7047D20728BF31F85E
:10058000023B48BF11F8012B28BF20F8023B48BFAF
:1005900000F8012B7047754600F02CF8AE460500B8
:1005A0006946534620F00700854618B020B5FFF78E
:1005B000C7FEBDE820404FF000064FF000074FF0A7
:1005C00000084FF0000BAC46ACE8C009ACE8C0092D
:1005D000ACE8C009ACE8C00921F007018D467047BE
:1005E00010B50446AFF300802046BDE81040FFF789
:1005F00090BE0000004870472000002001491820EC
:10060000ABBEFEE7260002007047000000EB400092
:1006100040F26821C2F2000101EB800000F07CB8DA
:10062000FEE70000704700000020FFF7EFBF00006A
:1006300086B000200590CDE90300CDE9010040F629
:100640008C40C4F202400168002441F001010160C5
:100650000068C4F2022400F00100009000982020FD
:10066000019001204BF6A035029001A92046C0F26E
:100670000D0500F07BF820462021002200F03EF915
:1006800072B646F2E076C0F2350600BF2046202161
:10069000012200F033F901950198411E019108B142
:1006A00000BFF9E720462021002200F027F901953C
:1006B0000198411E019108B100BFF9E720462021B1
:1006C000012200F01BF901950198411E019108B12A
:1006D00000BFF9E720462021002200F00FF9019623
:1006E0000198411E00280191D0D000BFF8E700001A
:1006F000B0B5044600F008F9054640F21900C2F210
:1007000000000078611C18BF044400BF00F0FCF832
:10071000401BA042FAD3B0BDF0B581B004460068DA
:10072000082202EA503542F20C07C4F2024700F0F8
:100730001F01012057F8252000FA01F6164205D0C6
:1007400047F825606068002818BF8047381D50F8BA
:100750002510314207D040F82560A06818B101B0DB
:10076000BDE8F040004701B0F0BD00000A68002A73
:1007700008BF70472DE9F04F83B000F120030193CB
:1007800047F67F73C0F22F0303EA90234FF0000C6B
:100790004FF0010B00270024002500930CE000BF60
:1007A0000A68013532FA05F604F1040407F102077C
:1007B0000CF1080C00F09E800BFA05F812EA080212
:1007C000EED04E68029246F01006122E19D16FF04C
:1007D000030202EA550EDDF804B004F01C025BF8D7
:1007E0000E30D1F810A00F2606FA02F90AF00F0613
:1007F00023EA090306FA02F21A434BF80E204FF0DF
:10080000010B0268D1F804900326BE4009F0030AE8
:10081000F343B2430AFA07F63243B9F1120F02600A
:1008200012D80BFA09F212F0061F0DD08268CE68BA
:100830001A40BE40324382604268C9F3001622EA81
:100840000802AE4032434260BAF1030F02D18A6817
:10085000012A05D0C2688E681A40BE403243C26089
:10086000029B5FEAC9029BD542F2000825F0030211
:10087000C4F2024808EB020EDEF860900CF0180695
:100880000F22B24029EA0209009A02FA06F649EA62
:100890000602CEF86020D8F80090D1F804E049EACA
:1008A00003025FEACE2658BF29EA0302C8F80020F7
:1008B000D8F804905FEA8E2249EA030658BF29EA75
:1008C0000306C8F80460D8F884905FEA8E3249EADB
:1008D000030658BF29EA0306C8F88460D8F8809058
:1008E0005FEACE3249EA030658BF29EA0306C8F890
:1008F000806055E703B0BDE8F04F70471823002A29
:1009000008BF2823C150704740F2F050C2F20000E7
:100910000068704740F2190040F2F051C2F2000046
:10092000C2F2000100780A681044086070470000B5
:1009300080B5032000F096F802F054FB40F6204109
:10094000C4F20241096846F20E4201F00F01C0F6FE
:100950000002515CC84040F20001C2F20001086090
:10096000042002F0D5FE0F2000F008F800281CBF7C
:10097000012080BD00F048F8002080BDB0B540F2F5
:100980001905C2F20005297829B304464EF2100079
:10099000CEF20000006840070FD402F005FF0228E5
:1009A0002CD0012826D068BB40F20000C2F2000023
:1009B000006829784FF4FA5206E040F20000C2F2D3
:1009C000000000684FF47A72B2FBF1F1B0FBF1F075
:1009D00002F0D8FE08B10120B0BD4FF0FF30214633
:1009E000002200F013F840F21C010020C2F20001C6
:1009F0000C60B0BD29784FF4FA40E3E729784FF452
:100A00000040DFE70020E3E77047000010B54EF636
:100A10000C5CCEF2000CDCF80030C3F3022E8EF03A
:100A20000704042C28BF0424BEF103034FF0FF3E4B
:100A300038BF00230EFA04F4A14399400EFA03F3E1
:100A40009A43114300F1604200F00F03090102F5DF
:100A50006442043B6344002848BF03F10C02117058
:100A600010BD00004EF60C51CEF200010A684FF6A0
:100A7000FF031A4060F30A2242F0806040F0FD70EC
:100A80000860704770470000704700007047000022
:100A90002DE9F04F85B00446006803F0D1FE010453
:100AA0001AD4410535D441044FD4810400F1378470
:100AB000C10400F13884010500F16C84010600F1E5
:100AC0007984810500F18584C00540F1498420685E
:100AD0004FF6FF6200F041BC2068416C090440F110
:100AE0003F8404F1140140F60F75039104F527715A
:100AF000C0F2FF7546F2004704F5AA7B02914FF061
:100B00000A0905F54051C4F201070091CDF804B07F
:100B100031E020684FF6FF32416C114041642046BD
:100B200000F07CFC94F89402012800F01984012064
:100B3000002584F8940265742068002103F0B2FE59
:100B400084F8945205B0BDE8F08F20684BF6FF7230
:100B500000F003BC307807EBC000416889B2416007
:100B60004168416031782046FFF78EFF2068416C74
:100B7000090440F1F583426C12F00F0A26D050F8B8
:100B80002A805FEA084140F1548150F82A100AEBAC
:100B90008A02294041F080010BEBC20640F82A107E
:100BA000317B00294AD0F17802295CD131785FEAA3
:100BB000484200F19280CDF8109000BF049A002ABC
:100BC00000F09480049A013A0492F7E70168D20693
:100BD0001ED4294041F400410160207D57F83000C7
:100BE000A16AC0F3094020630844A06220460021A6
:100BF000FFF74AFF607C0028B8D0E06A0028B5D132
:100C0000607C216840F08000C86400206074ADE71B
:100C10000A053ED40904A9D50168294041F08001A4
:100C200001609BF80010CDF8109000BF049A002AD4
:100C300000F09E80049A013A0492F7E73178CDF8EB
:100C4000109000BF049A1AB1049A013A0492F9E78D
:100C500007EBC1014968C1F30947002F00F0D180BB
:100C60007169F288CAE0317848F2C00350F8212057
:100C70002A401A4340F8212050F8212052044FD432
:100C8000CDF81090049A002A52D0049A013A0492A6
:100C9000F8E79BF80010CDF8109000BF049A1AB145
:100CA000049A013A0492F9E707EBC1014968C1F3DC
:100CB0000943082BC4F8703140F05583B4F85A2129
:100CC000029903F0BFFD20680168294041F08001CE
:100CD0000160204600F0A8FB48E7CDF8109000BF67
:100CE000049A6AB3049A013A0492F9E707EBC10245
:100CF00000235268C2F30947B269D21B38BF1A46B3
:100D0000B26154D95FEA48625DD450F8212048F2BC
:100D1000C0032A401A4340F82120002F54D170E02C
:100D2000CDF81090049AE2B1049A013A0492F9E7DE
:100D300007EBC1014968C1F30947002F44D160E0C6
:100D400057F831200023C2F30947B269D21B38BFDC
:100D50001A46B2613BD95FEA486244D4002F4BD1B6
:100D60004FE057F83110C1F30947002F44D148E054
:100D700007EBC1014968C1F30943002BC4F8703186
:100D800000F07781D4F8681100293FF4EFAEB4F891
:100D90005A2103F057FDD4F86801D4F870110844C3
:100DA000C4F8680120460021FFF770FEDEE650F827
:100DB0002120009B1A404AF280035A4040F821202B
:100DC0005FEA4862A1D5E7B17169728916E050F80F
:100DD0002120009B1A404AF280035A4040F821200B
:100DE0005FEA4862BAD550F8212048F2C0032A4091
:100DF0001A4340F8212027B1716932893B4603F03C
:100E000021FDD6E906013944F16110B13069B842DB
:100E100004D931782046FFF739FE06E07069C11920
:100E200020687161314603F0B5FA46F20047C4F21A
:100E300001075FEA08607FF599AE20680AEB8A0136
:100E400050F82A20039B03EBC10602EA050141F496
:100E5000004140F82A10F278012A1BD1307B00288B
:100E60004FF00000B0613FF47DAE70785FEA4861FA
:100E700036D401283FF46EAE00287FF473AE30788C
:100E800007EBC000416821F07C414160416841F0BE
:100E9000004166E65FEAC85115D4317857F8312031
:100EA000B369C2F3094200279B1A38BF3B46B361BE
:100EB0002AD97169F369114471619918F161314658
:100EC00003F068FA25E231785FEA486320D4CDF870
:100ED000109000BF049B1BB3049B013B0493F9E7F4
:100EE000012800F0CE8000287FF43CAE307857F81F
:100EF000301021F07C4147F8301057F8301041F0A5
:100F0000004147F830102DE62046FFF7BDFD00E216
:100F1000CDF81090049BE3B3049B013B0493F9E7E5
:100F200007EBC10E00235EF8047FB569C7F30947DC
:100F3000ED1B38BF1D46B56162D9DDF804B040F63F
:100F40000F755FEA4842C0F2FF7507D450F82120C0
:100F50004CF280032A401A4340F8212096F82410CE
:100F60004FF00A09012940F0C881D6E904C1D6E949
:100F700007523D44394462457161F56180F0D28089
:100F8000002A00F05A8100239446336286F8243008
:100F900057E157F83130B769C3F309430025FF1A09
:100FA00038BF2F46B76148D940F60F755FEA48420F
:100FB000C0F2FF7507D550F821204CF280072A4077
:100FC0003A4340F8212096F824204FF00A09012ADC
:100FD00040F09381D6E90472D6E9075E02EB030C78
:100FE000EA18BE45C6F814C0F26180F09F80002266
:100FF000BEF1000F86F8242040F09B809E4699E0C9
:101000007778DDF804B040F60F75012FC0F2FF7558
:1010100042D0002F4FF00A0940F0C08046F2004352
:10102000C4F2010353F8315025F07C4543F83150A8
:1010300053F8315045F0004539E0737840F60F75AC
:10104000012BC0F2FF754BD046F20047002B4FF04A
:101050000A09C4F2010740F0C8803D4657F83170D4
:1010600027F07C4745F8317055F8317047F000475C
:1010700043E00168009A11404BF280025140016048
:1010800074E5307857F8301089B247F8301057F8C7
:10109000301047F8301065E546F20043C4F2010312
:1010A00053F83150ADB243F8315053F8315043F852
:1010B0003150DDF804B0012F4FF00A0961D040F63D
:1010C0000F75002FC0F2FF7568D1DEF8007027F0B1
:1010D0007C47CEF80070DEF8007047F000475BE018
:1010E00046F20045C4F2010555F831704FF00A0987
:1010F000BFB245F8317055F83170012B45F83170A9
:101100002F4663D040F60F75002BC0F2FF756CD1EF
:1011100007EBC1035F6827F07C475F605F6847F0BB
:1011200000475DE0A2EB0C0232628AE0AEEB070200
:10113000BE4632627278DDF804B046F2004740F6EF
:101140000F75C4F20107C0F2FF75012A6BD0002AA7
:1011500040F0B88057F83120BEF1000F22F07C42F9
:1011600047F8312000F09780BEF13E0F00F29980E1
:101170000EF0010202EB5E0257F8313043EA826260
:101180009EE0DEF8007040F60F75BFB2C0F2FF754A
:10119000CEF80070DEF80070CEF80070022A09D197
:1011A00050F8212005F130031A4048F2A0035A40BC
:1011B00040F821202046FFF767FC46F200475FEA2F
:1011C0004840C4F201073FF5D1AC21E007EBC10371
:1011D00040F60F755F68C0F2FF75BFB25F605F6871
:1011E0005F6046F20047C4F20107022A09D150F8B5
:1011F000212005F130031A4048F2A0035A4040F87C
:1012000021202046FFF740FC5FEA48407FF5AEAC66
:10121000206831784CF2800350F821202A401A438C
:1012200040F82120A2E457F8312092B247F831204B
:1012300057F8312042EA0E4242E0002286F824208C
:10124000BC467278DDF804B040F60F75C0F2FF7549
:10125000012A16D0002A4BD1DEF80020BCF1000F85
:1012600022F07C42CEF8002018D0BCF13E0F2ED8E0
:101270000CF0010202EB5C02DEF8007047EA8262C9
:1012800034E0DEF8002092B2CEF80020DEF8002034
:1012900042EA0C422AE057F831200FE0DEF8002045
:1012A00022E05FEACE634FEA5E124FF0FF3308BFE1
:1012B00003EB5E1257F8313043EA826242F000429B
:1012C00047F8312032891FFA8EF3614613E04FEA66
:1012D0005C125FEACC674FF0FF3308BF03EB5C1290
:1012E000DEF8007047EA826242F00042CEF8002049
:1012F00072891FFA8CF303F0DBFA2068317805F16C
:10130000300350F821201A4048F2B0035A4040F808
:10131000212046F20047C4F20107FFF727BC2068EE
:101320004DF6FF7219E02068016C21F004010164A0
:10133000016C21F00801016494F8CC02012806D167
:10134000002084F8CC0220460021FFF79BFB2046BA
:1013500000F066F820684EF6FF72416C114041645F
:1013600005B0BDE8F08F0168009A114049F2800293
:1013700051400160016805F13002114048F29002CD
:10138000514001600168294041F08001016005B0D1
:10139000BDE8F08F21684FF2FF72086C40F0080042
:1013A0000864486C10404864086C40F00402204611
:1013B0000A6409E020684FF67F72416C1140416475
:1013C00094F8CC1289B1204605B0BDE8F04F00F08A
:1013D0002DB821684FF6FF52486C024020464A64FF
:1013E00005B0BDE8F04F00F01DB8016C41F00401FC
:1013F0000164016C41F008010164012184F8CC1200
:10140000406D3C2101EA900220460121C4F8D0221F
:1014100005B0BDE8F04FFFF735BB00007047000096
:1014200070470000704700007047000070470000E0
:1014300010B540F6284CC4F2024CDCF80CE0DCF8A5
:101440000010DCF80020C2F30523DCF80020DCF8F3
:101450001040ABB3E408D20604EAE27201F00301E3
:101460006FF35F3200EE102A0329B8EE400A6FF3E3
:101470005F2E2FD0022928D001295CF8281C49F2C0
:101480000002C1F3C101C0F2D03222FA01F101EE33
:10149000101A02EE103AB8EE411AB8EE422A9FED49
:1014A000473A81EE021A02EE10EA20EE030AB8EE85
:1014B000422A30EE020AB7EE002A30EE022A1FE07E
:1014C0000021C0E90011816010BD01EE103A9FEDCE
:1014D0003C2A03E001EE103A9FED372AB8EE411A9C
:1014E00082EE012A01EE10EA9FED343AB8EE411A7D
:1014F00020EE030A30EE010AB7EE001A30EE011AB0
:101500005CF8281C22EE010A890103D5DCF80010E2
:10151000C90301D4002111E0DCF80C10B7EE002A59
:10152000C1F3462101EE101AB8EE411A31EE021A4B
:1015300080EE011ABCEEC11A11EE101A01605CF8BF
:10154000281C890103D5DCF80010890301D400218F
:1015500011E0DCF80C10B7EE002AC1F3064101EEF1
:10156000101AB8EE411A31EE021A80EE011ABCEEE2
:10157000C11A11EE101A41605CF8281C890144BFA1
:10158000DCF800105FEA413102D40021816010BD17
:10159000DCF80C10B7EE002AC1F3066101EE101A58
:1015A000B8EE411A31EE021A80EE010ABCEEC00A12
:1015B00010EE101A816010BD20BCBE4B0000003937
:1015C0000024744A10B540F62C4CC4F2024CDCF8EE
:1015D00010E0DCF80010DCF80020C2F30523DCF892
:1015E0000020DCF81440ABB3E408D20604EAE2724F
:1015F00001F003016FF35F3200EE102A0329B8EE09
:10160000400A6FF35F2E2FD0022928D001295CF801
:101610002C1C49F20002C1F3C101C0F2D03222FAFF
:1016200001F101EE101A02EE103AB8EE411AB8EECE
:10163000422A9FED473A81EE021A02EE10EA20EEAE
:10164000030AB8EE422A30EE020AB7EE002A30EE64
:10165000022A1FE00021C0E90011816010BD01EEE7
:10166000103A9FED3C2A03E001EE103A9FED372A35
:10167000B8EE411A82EE012A01EE10EA9FED343AEB
:10168000B8EE411A20EE030A30EE010AB7EE001A56
:1016900030EE011A5CF82C1C22EE010A090103D578
:1016A000DCF80010C90301D4002111E0DCF81010AF
:1016B000B7EE002AC1F3462101EE101AB8EE411A26
:1016C00031EE021A80EE011ABCEEC11A11EE101AA8
:1016D00001605CF82C1C090103D5DCF800108903BB
:1016E00001D4002111E0DCF81010B7EE002AC1F39C
:1016F000064101EE101AB8EE411A31EE021A80EEE0
:10170000011ABCEEC11A11EE101A41605CF82C1CD3
:10171000090144BFDCF800105FEA413102D4002126
:10172000816010BDDCF81010B7EE002AC1F306612D
:1017300001EE101AB8EE411A31EE021A80EE010ADB
:10174000BCEEC00A10EE101A816010BD20BCBE4B6A
:10175000000000390024744A10B540F6304CC4F241
:10176000024CDCF814E0DCF80010DCF80020C2F3D6
:101770000523DCF80020DCF81840ABB3E408D206FF
:1017800004EAE27201F003016FF35F3200EE102A07
:101790000329B8EE400A6FF35F2E2FD0022928D01C
:1017A00001295CF8301C49F20002C1F3C101C0F20A
:1017B000D03222FA01F101EE101A02EE103AB8EE20
:1017C000411AB8EE422A9FED473A81EE021A02EE24
:1017D00010EA20EE030AB8EE422A30EE020AB7EE13
:1017E000002A30EE022A1FE00021C0E900118160CA
:1017F00010BD01EE103A9FED3C2A03E001EE103AD5
:101800009FED372AB8EE411A82EE012A01EE10EA66
:101810009FED343AB8EE411A20EE030A30EE010A89
:10182000B7EE001A30EE011A5CF8301C22EE010A05
:10183000890003D5DCF80010C90301D4002111E0B0
:10184000DCF81410B7EE002AC1F3462101EE101A9D
:10185000B8EE411A31EE021A80EE011ABCEEC11A3E
:1018600011EE101A01605CF8301C890003D5DCF819
:101870000010890301D4002111E0DCF81410B7EE48
:10188000002AC1F3064101EE101AB8EE411A31EEFA
:10189000021A80EE011ABCEEC11A11EE101A416054
:1018A0005CF8301C890044BFDCF800105FEA41316D
:1018B00002D40021816010BDDCF81410B7EE002ABC
:1018C000C1F3066101EE101AB8EE411A31EE021AA8
:1018D00080EE010ABCEEC00A10EE101A816010BD45
:1018E00020BCBE4B000000390024744A80B584B08F
:1018F0004FF6FF730246C0F23F0300209B1A70EBC5
:101900000103C0F2608041F6FF739B1A70EB010384
:10191000C0F28E80B2F1010E61F1000CDEF11F0306
:101920004FF0000373EB0C03C0F0C081DFE81EF042
:10193000200094028403DB018403840384033602C1
:10194000840384038403840384038403840365027F
:10195000840384038403840384038403840384034F
:1019600084038403840384038403840384030702BD
:1019700040F60040C4F20240D0F8D81011F0070140
:1019800000F0DD830268012903D112F0006240F00B
:10199000F6830268022903D112F0005240F0B483AA
:1019A00003680268032903D113F0020340F079842D
:1019B000042903D112F4007240F0A384D0F8F0009F
:1019C000052900F037BC6FF040439B1A70EB010310
:1019D0006DDA072940F3C880B1F5007F80F21881E5
:1019E00081F00803134300F0D88281F01001114305
:1019F00040F0228340F60040C4F20240D0F8E410E8
:101A000001F03001102900F0B6830268202903D1CB
:101A100012F0005240F07883006810F400501CBFB0
:101A200046F60040C0F2DC20302918BF002003E356
:101A30004FF6FF739B1A4FF0000C7CEB010380F212
:101A4000B7804FF6FF73C0F203039B1A7CEB0103D0
:101A5000C0F2FA8082F480330B4300F0D18282F42A
:101A60000032114340F0E88240F60040C4F20240E8
:101A7000D0F8DC10C1F30221052900F28683DFE8EB
:101A800011F02D01F0025803A5039C030600D0F8C5
:101A9000E810036802689B0701F0404102D5002965
:101AA00000F0FF83920500F1088400F009BC6FF09C
:101AB00078439B1A4FF000038B4123DB82F48003B1
:101AC0000B4300F0468282F000730B4300F0EA8182
:101AD00082F08062114340F0AF8240F60040C4F2D1
:101AE0000240D0F8E810026801F03001920440F1A1
:101AF0002B83002940F0288346F60040C0F2DC200A
:101B000004B080BD82F000630B4300F02C8282F0B1
:101B100080530B4300F0F88182F00052114340F0F3
:101B20008B8240F60041C4F20241D1F8E000C0F3DC
:101B30008212042A00F2298348F20000C0F2BB009E
:101B4000DFE812F019038F0227027A020500D1F8AC
:101B5000E8200B6808689B0702F0404240F1F581DD
:101B6000002A00F07983F0E182F080430B4300F01B
:101B7000B28281F00203134300F0798281F0040104
:101B8000114340F0598240F60040C4F20240D0F8C0
:101B9000E8100068800301F4407040F1E6820028FC
:101BA00040F0E38247F64000C0F27D1004B080BDF3
:101BB00082F400530B4300F0AB8282F480430B436A
:101BC00000F06A8282F40042114340F0358240F610
:101BD0000040C4F20240D0F8E41001F44011B1F525
:101BE000801F00F0A682002978D002680068B1F555
:101BF000001F03D112F0020240F02E8310F4007097
:101C00001CBF40F60010C0F23D00B1F5401FD0E20D
:101C100081F40073134300F0DB8181F480511143A0
:101C200040F00A8240F60041C4F20241D1F8E400DB
:101C300000F04060B0F1806F00F07B8200284DD052
:101C40000A68B0F1006FEDE182F480230B4300F0ED
:101C5000F58182F40012114340F0EE8140F600401D
:101C6000C4F20240D0F8E81001F00701022900F0A8
:101C70000F82012900F0BC82002900F00482026872
:101C8000032902D112F400328CD1026800680429C1
:101C900003D112F0020240F0DF8210F400701CBF8A
:101CA00040F60010C0F23D00052982E282F4805225
:101CB000114340F0C18140F60040C4F20240D0F828
:101CC000E01001F0E061B1F1007F00F01D82B1F1A0
:101CD000807F00F05482002940F09A8204B0BDE871
:101CE000804001F05BB940F60040C4F20240D0F8F9
:101CF000D81011F4E07100F017820268402903D176
:101D000012F0006240F03B820268802903D112F099
:101D1000005240F0F98103680268C02903D113F032
:101D2000020340F0BE82B1F5807F03D112F400724D
:101D300040F0E782D0F8F000B1F5A07F7AE240F6FB
:101D40000040C4F20240D0F8D81011F4603100F025
:101D5000EB810268B1F5004F03D112F0006240F050
:101D60000E820268B1F5803F03D112F0005240F0BC
:101D7000CB8103680268B1F5C03F03D113F00203C1
:101D800040F08F82B1F5003F03D112F4007240F0B1
:101D9000B882D0F8F000B1F5203F4BE240F60040A9
:101DA000C4F20240D0F8D81011F4606100F0BC8198
:101DB0000268B1F5007F03D112F0006240F0DF81CC
:101DC0000268B1F5806F03D112F0005240F09C819F
:101DD00003680268B1F5C06F03D113F0020340F04D
:101DE0006082B1F5006F03D112F4007240F0898275
:101DF000D0F8F000B1F5206F1CE240F60040C4F2CC
:101E00000240D0F8D81011F4E04100F08D81026852
:101E1000B1F5805F03D112F0006240F0B08102683A
:101E2000B1F5005F03D112F0005240F06D810368FC
:101E30000268B1F5405F03D113F0020340F0318234
:101E4000B1F5804F03D112F4007240F05A82D0F8FD
:101E5000F000B1F5A04FEDE140F60040C4F20240C1
:101E6000D0F8D81011F0380100F05E81026808291E
:101E700003D112F0006240F08281102900F0448109
:101E800003680268182903D113F0020340F00982A5
:101E9000202903D112F4007240F03382D0F8F00010
:101EA0002829C7E140F60041C4F20241D1F8F00010
:101EB000D1F8F020920700F4407203D5B2F5807F8C
:101EC00000F04F81D1F8F000000103D5B2F5007F9A
:101ED00000F07A80086880034FF0000040F1AC8089
:101EE000B2F5407F40F0A880C86910F4785F00F038
:101EF0004C81C86947F64001C0F30520C0F27D114E
:101F0000B1FBF0F004B080BD40F60041C4F20241E4
:101F1000D1F8E000C0F3C202042A00F2368148F290
:101F20000000C0F2BB00DFE812F026019C00340084
:101F300087000500D1F8E8200B6808689B0702F0CD
:101F4000404202D5002A00F08781800500F1D68149
:101F5000DDE140F60040C4F20240D0F8E400400663
:101F600040F1098194E040F60041C4F20241D1F809
:101F7000E00000F00702042A00F2078148F20000A6
:101F8000C0F2BB00DFE812F0F7006D00050058005A
:101F90005E0101A8FFF7E0FB66E040F60040C4F2F6
:101FA0000240D0F8E810D0F8F02001F0C00192070C
:101FB00002D5002900F0D580D0F8F020120140F1C0
:101FC0000D81402940F00A814FF4FA4004B080BDF1
:101FD00040F60041C4F20241D1F8E800D1F8F02007
:101FE00000F00800920702D5002800F0BA80D1F86E
:101FF000F010002818BF4FF4FA4001F0006192E1A0
:1020000040F60041C4F20241D1F8E40000F0407013
:10201000B0F1807F00F08D80002800F085800A6894
:10202000B0F1007F4FF0000006D112F0020203D0A1
:102030000868C0F3C10036E104B080BD40F600403E
:10204000C4F20240D0F8DC10C1F30231052900F2DD
:102050009C80DFE811F0690006006E00BB00B20052
:102060001D0101A8FFF7AEFA019804B080BD40F64B
:102070000040C4F20240D0F8E41001F00301DFE8B0
:1020800001F0027A07BC04B0BDE8804000F026BF32
:1020900001A8FFF797FA4FE040F60040C4F2024073
:1020A000D0F8E41001F44021B1F5802F41D0D9B32C
:1020B00002680068B1F5002F03D112F0020240F06F
:1020C000CB8010F400701CBF40F60010C0F23D0041
:1020D000B1F5402F6DE040F60040C4F20240D0F868
:1020E000E01011F460612AD00268B1F5007F02D1DE
:1020F00012F0006243D10268B1F5806F40F0AF800A
:1021000012F0005200F0AB8001A8FFF725FB39E088
:1021100040F60040C4F20240D0F8E41001F440312F
:10212000B1F5803F05D099BB04B0BDE8804000F018
:10213000EDBE01A8FFF710FB039804B080BD04B00A
:10214000BDE8804000F006BF0268920101D5102969
:1021500011D0D0F8F020920740F1BF80202940F044
:10216000BC804FF4004004B080BDB0F5007F06D0C5
:10217000B0F5807F09D101A8FFF75AF902E001A864
:10218000FFF720FA029804B080BD002004B080BDA3
:1021900002680068B1F5003F02D112F002025BD183
:1021A00010F400701CBF40F60010C0F23D00B1F505
:1021B000403F18BF002004B080BDD0F8F0004FF4BD
:1021C000FA41000101EAE07004B080BDD0F8F000EF
:1021D0004FF4004101EA803004B080BD00688029DE
:1021E00000F400724FF0000008BF48F212007EE0D9
:1021F00004B0BDE8804000F0F5BED0F8E8100368F8
:1022000002689B0701F0404155D5002949D052E0B2
:1022100003680268B1F1407F02D113F0020340D19C
:10222000B1F1806F02D112F400726AD1D0F8F000DF
:10223000B1F1A06F00F002024FF0000008BF900360
:1022400004B080BDD1F8E8200B6808689B0702F055
:10225000404251D5002A4FD1C0F3C10023E00368AA
:102260000268B1F5C06F02D113F0020319D1B1F5C4
:10227000006F02D112F4007243D1006810F40030F4
:102280001CBF47F64000C0F27D10B1F5206F90E70B
:10229000D0F8E810036802689B0701F040410AD5B6
:1022A00049B9C2F3C10049F20001C0F2D03121FAAC
:1022B00000F004B080BD920502D5B1F1804F20D06E
:1022C0000068B1F1004F00F400324FF0000004BF8D
:1022D00047F64000C0F27D1009E0D0F8F000302948
:1022E00000F000624FF0000008BF4FF4FA40002AEF
:1022F00008BF104604B080BD800508D5B2F1804FFC
:1023000005D140F60010C0F23D0004B080BD086861
:10231000B2F1004F00F400314FF0000004BF47F667
:102320004000C0F27D10002908BF084604B080BDFF
:102330002DE9F0470446006840F62848C101C4F280
:10234000024807D5D8F8C010A26D21F040411143D2
:10235000C8F8C010C00701D1002017E0E16D0529C1
:1023600000F2E5830020DFE811F00600FF03A5037B
:1023700006000600060008B1814609E0D8F8B01052
:10238000E26D21F007011143C8F8B0104FF00009C9
:102390002178890718D5216E4FEAF101052900F24D
:1023A000C983DFE811F00600E7038D03060006008D
:1023B000060008B1814607E0D8F8B010226E21F07F
:1023C00038011143C8F8B0102178490718D5616E5B
:1023D0004FEAB111052900F2B083DFE811F00600E1
:1023E000D103770306000600060008B1814607E026
:1023F000D8F8B010626E21F4E0711143C8F8B01043
:102400002178090718D5A16E4FEA7121052900F23C
:102410009783DFE811F00600BB03610306000600A6
:10242000060008B1814607E0D8F8B010A26E21F48A
:1024300060611143C8F8B0102178C90618D5E16E63
:102440004FEA3131052900F27E83DFE811F0060002
:10245000A5034B0306000600060008B1814607E00D
:10246000D8F8B010E26E21F4E0411143C8F8B01082
:102470002178890618D5216F4FEAF131052900F23C
:102480006583DFE811F006008F03350306000600C0
:10249000060008B1814607E0D8F8B010226F21F499
:1024A00060311143C8F8B0106178C90618D5616F62
:1024B0004FEA3161052900F24C83DFE811F0060094
:1024C00079031F0306000600060008B1814607E0F5
:1024D000D8F8B810626F21F0E0611143C8F8B81065
:1024E000617889061DD5A16F6FF0010202EB3142C0
:1024F000022A08D34FEA314129B1012906D104F15A
:10250000300001F09BFB20B181460AE00120002849
:10251000FAD1D8F8BC10A26F21F440311143C8F8A9
:10252000BC10617849061DD5E16F6FF0010202EB26
:10253000B142022A08D34FEAB14129B1012906D19B
:1025400004F1300001F07AFB20B181460AE001205D
:102550000028FAD1D8F8BC10E26F21F440211143D1
:10256000C8F8BC10617809061FD5D4F880106FF048
:10257000010202EB3152022A08D34FEA315129B14C
:10258000012906D104F1300001F058FB20B1814649
:102590000BE001200028FAD1D8F8BC10D4F8802034
:1025A00021F440111143C8F8BC10A178C9071CD010
:1025B000D4F88410002918BFB1F1007F02D158B1BE
:1025C000814612E0B1F1807F12BF012004F130009A
:1025D00001F034FB0028F3D1D8F8BC10D4F88420E3
:1025E00021F040711143C8F8BC106179C9061CD5AF
:1025F000D4F88810002918BFB1F1006F02D158B18A
:10260000814612E0B1F1806F12BF012004F1300069
:1026100001F014FB0028F3D1D8F8BC10D4F88820BE
:1026200021F040611143C8F8BC10D4E9001240F613
:102630001C46C4F20246120508D5326822F4004254
:102640003260D4F8C82033681A43326089031AD53F
:10265000D4F88C104FEA3121052900F27D82DFE8A1
:1026600011F00600AD02520206000600060008B195
:10267000814608E0D8F8B410D4F88C2021F4E06149
:102680001143C8F8B410A17849071AD5D4F89010AE
:102690004FEA3131052900F26182DFE811F00600CE
:1026A0009402390206000600060008B1814608E0DF
:1026B000D8F8B410D4F8902021F4E0411143C8F8C0
:1026C000B410A178890613D5D4F8A010052900F21A
:1026D0004782022900F0218208B1814608E0D8F83B
:1026E000C010D4F8A02021F007011143C8F8C01091
:1026F000D4E90012920509D5D4F8A42042F00803C9
:10270000082B18BF0120002855D0814689012AD501
:102710004FF60847CFF6FF778246F05940F00100A8
:10272000F051FEF7F1F80546F059C00707D1FEF762
:10273000EBF8401B0328F7D3032098B901E050467B
:1027400080B9D8F8C81011F4407100F04682D4F86E
:10275000BC20914240F05A82C90740F042820028D2
:1027600000F06E82814621684A0114D5D4F8982081
:102770006FF0010303EB3213022B0AD34FEA32133B
:102780003BB1012B35D1D8F8003043F40033C8F801
:10279000003088B38146490237D5D4F89C104029CF
:1027A00013D011BBD8F8001041F40031C8F8001064
:1027B00088B1814629E0D8F8C03023F008031A43D5
:1027C000C8F8C0208901A3D4CDE704F1080001F0C6
:1027D000BFF90028EDD1D8F8BC10D4F89C2021F026
:1027E00040011143C8F8BC100FE001200028E0D1DF
:1027F000F1E701200028CDD1D8F8C03023F0300314
:102800001A43C8F8C0204902C7D4E17809071DD58A
:10281000D4F8AC10042900F23E81DFE811F0060183
:10282000240108000500050038B181460EE004F1DE
:10283000300001F003FA0028F7D1D8F8B810D4F826
:10284000AC2021F007011143C8F8B810E178C9069F
:102850001FD5D4F8B0104FEAF101042900F220810D
:10286000DFE811F0ED00090108000500050038B1AE
:1028700081460EE004F1300001F0E0F90028F7D1C4
:10288000D8F8B810D4F8B02021F038011143C8F8B6
:10289000B810E17889061FD5D4F8B4104FEAB11109
:1028A000042900F20281DFE811F0D400EE000800F4
:1028B0000500050038B181460EE004F1300001F05A
:1028C000BDF90028F7D1D8F8B810D4F8B42021F415
:1028D000E0711143C8F8B810E17849061AD5D4F868
:1028E000B8104FEA7121052900F23C81DFE811F0B0
:1028F000060070011A0106000600060008B18146B4
:1029000008E0D8F8B810D4F8B82021F46061114379
:10291000C8F8B810217989071CD5D4F8A810032964
:1029200000F27E80DFE801F00205740248B18146C2
:1029300010E0D8F8001041F40031C8F80010002869
:10294000F5D1D8F8BC10D4F8A82021F00301114328
:10295000C8F8BC102179490720D5D4F89410D1B11A
:10296000B1F5007F13D0B1F5807F49D1D8F80010C0
:1029700041F40031C8F8001078B9D8F8C010D4F884
:10298000942021F440711143C8F8C01006E004F10E
:10299000080001F0DDF80028EFD081462179C90652
:1029A0001DD5D4F8C41030290FD0202909D0102902
:1029B0002AD1D8F8001041F40031C8F8001078B9D5
:1029C00004E004F1300001F039F948B9D8F8BC004E
:1029D000D4F8C41020F030000843C8F8BC004846C2
:1029E0002179090758BFBDE8F087D8F8C010D4F89E
:1029F000C02021F0C0011143C8F8C010BDE8F08725
:102A000001200028C9D1B8E701200028E8D1DDE77E
:102A100004F1080001F09CF800287FF488AF90E7EB
:102A2000012000287FF483AF8BE7D8F8001041F431
:102A30000031C8F8001000287FF4F7AEFDE6D8F8A2
:102A4000001041F40031C8F8001000287FF410AFE6
:102A500016E7D8F8001041F40031C8F8001000283B
:102A60007FF429AF2FE704F1080001F071F8002886
:102A70007FF4DBAEE1E604F1080001F069F800281C
:102A80007FF4F6AEFCE604F1080001F061F80028DE
:102A90007FF411AF17E7012000287FF4C6AECCE623
:102AA000012000287FF4E4AEEAE6012000287FF44C
:102AB00002AF08E704F1300001F0C0F8FFF75BBC9B
:102AC00004F1300001F0BAF8FFF773BC04F13000F4
:102AD00001F0B4F8FFF789BC04F1300001F0AEF862
:102AE000FFF79FBC04F1300001F0A8F8FFF7B5BC78
:102AF00004F1300001F0A2F8FFF7CBBC04F1300084
:102B000001F09CF8E1E404F1300001F097F8AEE543
:102B100004F1300001F092F8C7E504F1080001F07B
:102B200017F8D9E504F1300001F088F8E6E6012055
:102B3000FFF721BC0120FFF73CBC0120FFF755BC8B
:102B40000120FFF76EBC0120FFF787BC0120FFF7D3
:102B5000A0BC0120FFF7B9BC012088E50120A4E555
:102B60000120B9E50120C9E604F1080000F0F0FFFA
:102B7000FFF701BC04F1080000F0EAFFFFF719BC01
:102B800004F1080000F0E4FFFFF72FBC04F1080097
:102B900000F0DEFFFFF745BC04F1080000F0D8FFAD
:102BA000FFF75BBC04F1080000F0D2FFFFF771BC37
:102BB00004F1080000F0CCFFFFF787BC04F1080027
:102BC00000F0C6FF53E504F1080000F0C1FF6CE51A
:102BD00004F1080000F0BCFF90E60021C9073FF4B3
:102BE000BEAD8246FDF790FE054641F2893700BF33
:102BF000D8F8C80080071FD4FDF786FE401BB842F6
:102C0000F6D3032000287FF4ADAD19E0D8F8C81042
:102C1000D8F8C82021F4407142F48032C8F8C820A6
:102C2000D8F8C82022F48032C8F8C820C8F8C810E4
:102C3000C9073FF494ADD4E7504600287FF492AD25
:102C4000D4F8BC1032684FF6CF7701F4407322F409
:102C50007C52C0F2FF0707EA1117B3F5407F08BFA7
:102C60003A433260D8F8C8206FF31F3122F4407223
:102C7000C8F8C820D8F8C8201143C8F8C81072E5B1
:102C80002DE9F04381B0002800F0CF8042F2000827
:102C9000C4F202080446D8F800000D4600F00F0008
:102CA00088420DD2D8F8000020F00F002843C8F861
:102CB0000000D8F8000000F00F00A84240F0B580F6
:102CC000206840F62047C106C4F202470CD561696E
:102CD0003A68702303EA1222914205D93A6822F435
:102CE000E04242EA0121396001070CD521693A68C6
:102CF000702303EA1212914205D93A6822F4E06285
:102D000042EA0111396041070AD5E1683A6802F0E8
:102D10007002914204D93A6822F07002114339607E
:102D200081070AD5A1683A6802F00F02914204D9DE
:102D30003A6822F00F0211433960C00767D120685A
:102D400081070AD5A1683A6802F00F02914204D2C5
:102D50003A6822F00F0211433960D8F8001001F0F0
:102D60000F01A9420CD9D8F8001021F00F01294316
:102D7000C8F80010D8F8001001F00F01A94254D192
:102D800041070AD5E1683A6802F07002914204D224
:102D90003A6822F070021143396001070CD52169AD
:102DA0003A68702303EA1212914205D23A6822F47B
:102DB000E06242EA01113960C0060CD560693968E9
:102DC000702202EA1121884205D2396821F4E041DB
:102DD00041EA0020386000F005F9396846F20E42F9
:102DE00001F00F01C0F60002525C40F21C01C2F279
:102DF0000001096840F2000320FA02F2C2F2000367
:102E000008461A6001B0BDE8F043FDF7B7BD606841
:102E100057F8201C01280CD0022804D0032859D1CF
:102E2000890102D507E0890305D4012001B0BDE87E
:102E3000F0838905F9D557F8041C21F003010843F4
:102E400047F8040CFDF760FD61680646032941F26E
:102E5000883938D0022928D001290FD157F8040C1D
:102E600000F0180008283FF46AAFFDF74DFD801B05
:102E700048454FF00300F1D90DE000BF57F8040CAE
:102E800010F0180F3FF45BAFFDF73EFD801B484587
:102E90004FF00300F2D901B0BDE8F083FDF734FD37
:102EA000801B48454FF00300F5D857F8040C00F09C
:102EB00018001028F2D142E7FDF726FD801B484597
:102EC0004FF00300E7D857F8040C00F0180018285A
:102ED000F2D134E78907A8D5ADE7000080B500F04E
:102EE00081F840F62041C4F20241096846F20E42E0
:102EF00001F00F01C0F60002515C01F01F01C84053
:102F000040F20001C2F20001086080BD80B500F00F
:102F100069F840F62041C4F202410A6846F20E43C5
:102F200002F00F02C0F600039A5C02F01F02D040CC
:102F300040F20002C2F200021060096846F21E422E
:102F4000C1F30211C0F60002515C01F01F01C8403C
:102F500080BD000080B500F045F840F62041C4F285
:102F600002410A6846F20E4302F00F02C0F6000367
:102F70009A5C02F01F02D04040F20002C2F200024E
:102F80001060096846F21E42C1F30221C0F6000239
:102F9000515C01F01F01C84080BD000080B500F009
:102FA00021F840F62041C4F202410A6846F20E437D
:102FB00002F00F02C0F600039A5C02F01F02D0403C
:102FC00040F20002C2F200021060096846F21E429E
:102FD000C1F30231C0F60002515C01F01F01C8408C
:102FE00080BD000080B540F60041C4F20241C869CE
:102FF00000F01800082802BF40F60010C0F23D00A3
:1030000080BDC86910F0180F34D0C86900F01800EE
:10301000102802BF47F64000C0F27D1080BDC8698D
:1030200000F01800182849F20000C0F2D03063D137
:10303000D1F828E08A6AC2F3052C8A6A8B6BBCF14E
:10304000000F04BF002080BDDB08D20603EAE27255
:103050006FF35F3200EE102A0EF00302B8EE400A62
:10306000032A14D0012A15D10A68920615D49FEDBF
:10307000241A1AE00868800649F20000C0F2D03035
:1030800058BF80BD0968C1F3C101C84080BD9FED34
:103090001B1A0AE09FED1B1A07E00A68C2F3C1027F
:1030A000D04001EE100AB8EE411A02EE10CA486B89
:1030B000B8EE422A6FF35F2081EE021A02EE100A88
:1030C0009FED113AB8EE422A20EE030A486B30EE2B
:1030D000020AB7EE002AC0F3462030EE020A0130A1
:1030E00021EE000A01EE100AB8EE411A80EE010A44
:1030F000BCEEC00A10EE100A80BD00BF20BCBE4B63
:103100000024744C0024744A00000039002804BFD5
:10311000012070472DE9F04381B040F6004740F6AA
:10312000F0490446C4F20247C4F20249F86959F86A
:10313000C81C227800F01808D00601F0030629D533
:10314000B8F1080F1BD0B8F1180F08BF022E16D027
:10315000E1693868002900F0788140F480703860B7
:10316000FDF7D2FB054600BF386880050BD4FDF79C
:10317000CBFB401B02284FF00300F5D94AE2E0697F
:10318000002800F0E680B869216A20F47C1040EA4B
:103190000140B8612078C00719D0B8F1100F12D0E3
:1031A000B8F1180F08BF032E0DD065683868B5F563
:1031B000A02F80F23E81002D00F0B981B5F5803F4F
:1031C00000F0C881A8E16068002800F0C280207883
:1031D000800765D5B8F1000F21D0B8F1180F08BFEE
:1031E000012E1CD0E1683868002900F07181216946
:1031F00020F0180008433860386840F0010038605B
:10320000FDF782FB054600BF3868800741D4FDF713
:103210007BFB401B02284FF00300F5D9FAE1E06880
:10322000002800F09680B8F1000F26D13968206997
:1032300001F01801814220D0396821F018010843BB
:103240003860FFF7CFFE396A46F20E4201F00F01F7
:10325000C0F60002515C40F2000201F01F0120FAAA
:1032600001F140F21C00C2F200000068C2F200024C
:103270001160FDF783FB00286BD1FDF745FB054688
:103280003868800705D4FDF73FFB401B0228F7D9BB
:1032900079E03869616920F4FE0040EA0140386154
:1032A0002078000759D42078400770D42078800611
:1032B00000F19380A56A002D00F02682B8F1180F66
:1032C00040F0E58059F8C81C59F8BC0C012D40D0DD
:1032D000E26A01F0030393423BD1C1F30521226B63
:1032E000914236D1626B01466FF35F21013A914200
:1032F0002FD1A16BC0F3462201398A4229D1E16B5B
:10330000C0F3064201398A4223D1216CC0F3066022
:10331000013988421DD159F8B80CE16CC0F3CC00DA
:10332000884200F0F18159F8C80C20F0100049F8EB
:10333000C80CFDF7E9FA0546FDF7E6FAA842FBD00E
:10334000E06CC00049F8B80C59F8C80C40F0100007
:10335000D8E1012001B0BDE8F083A169D9F80000EF
:10336000002951D040F08060C9F80000FDF7CCFA88
:10337000054600BFD9F80000000194D4FDF7C4FA57
:10338000401B0228F6D9032001B0BDE8F0834FF6B8
:103390002446CFF6FF76B859C00712D1B85940F08D
:1033A0000100B851FDF7B0FA054600BFB859C00793
:1033B00007D1FDF7A9FA401B02284FF00300F5D909
:1033C00028E1A568D9F80000042D51DC002D00F09B
:1033D000EF80012D00F00781DBE0616A3868002989
:1033E00000F0888040F480503860FDF78DFA054683
:1033F000386880043FF55EAFFDF786FA401B02286F
:103400004FF00300F4D905E120F08060C9F8000016
:10341000FDF77AFA054600BFD9F8000000017FF5F4
:1034200042AFFDF771FA401B02284FF00300F3D9B9
:10343000F0E000F08780B5F5A81F6DD140F4802042
:103440003860386840F4801082E020F48070386082
:10345000FDF75AFA054600BF386880057FF59AAE39
:10346000FDF752FA401B02284FF00300F4D9D1E0D7
:10347000052D00F0AC80852D40F08B8040F00400DD
:10348000C9F80000D9F8000040F08000A7E03868D3
:1034900020F080703860FDF737FA022D05460BD119
:1034A0003868800140F1C680FDF72EFA401B0228E3
:1034B0004FF00300F4D9ADE03868800140F11B8182
:1034C000FDF722FA401B02284FF00300F4D9A1E0D7
:1034D00020F001003860FDF717FA054638688007CC
:1034E0007FF5DEAEFDF710FA401B02284FF0030017
:1034F000F4D98FE020F480503860FDF705FA0546D6
:10350000386880047FF5D6AEFDF7FEF9401B02282F
:103510004FF00300F4D97DE020F480303860386843
:1035200020F480203860386820F4801014E020F403
:1035300080303860386820F480103860386820F4B3
:10354000802009E040F480203860386820F4801042
:103550003860386840F480303860FDF7D5F9002DC8
:10356000054612D0386880033FF531AEFDF7CCF93F
:10357000401B64284FF00300F4D94BE0FDF7C4F979
:10358000401B64284FF0030044D838688003F5D40A
:103590001DE620F00100C9F80000D9F8000020F075
:1035A0000400C9F80000D9F8000020F080001CE0F9
:1035B00020F00100C9F80000D9F8000020F08000D8
:1035C000C9F80000D9F8000020F004000DE040F038
:1035D0000400C9F80000D9F8000020F08000C9F804
:1035E0000000D9F8000040F00100C9F80000FDF724
:1035F0008BF9002D054641F2883616D0D9F8000027
:1036000080073FF553AEFDF77FF9401BB0424FF006
:103610000300F3D901B0BDE8F08300BFFDF774F9F2
:10362000401BB0424FF00300F4D8D9F800008007E7
:10363000F4D43BE659F8C80C43F6037104F12C03AB
:1036400088430ECB084340EA0220A16B49F8C80C1E
:103650004FF47E4202EB4121E26B581E4FF4FE0311
:1036600089B203EB02426FF35F20084402F4FE01CB
:10367000226C4FF0FE4303EB0262084402F0FE416D
:10368000084449F8BC0C59F8C80C20F0100049F85F
:10369000C80CE06CC00049F8B80C59F8C80C40F0F0
:1036A000100049F8C80C59F8C80C616C20F00C00E7
:1036B000084349F8C80C59F8C80CA16C20F0200048
:1036C000084349F8C80C59F8C80C40F4803049F850
:1036D000C80C386840F080703860FDF715F9044672
:1036E0003868800110D4FDF70FF9001B02284FF055
:1036F0000300F5D98EE759F8C80C4FF6FC71CFF6E8
:10370000F871084049F8C80C002001B0BDE8F0830A
:10371000042888BF7047DFE800F0031A13332B003A
:103720004EF21000CEF20000016821F004010160A9
:1037300040F6E440C4F20240016821F00C011EE0B2
:103740004EF21000CEF200000168022205E04EF2B7
:103750001000CEF200000168012221F00401016096
:1037600040F6E440C4F20240016862F3830106E0DF
:103770004EF21000CEF20000016841F00401016039
:1037800070470000411E0020B0EB116F1CBF0120EC
:1037900070474EF21002CEF2000251609060116844
:1037A00041F00301116070474EF21000CEF20000AC
:1037B0000068400744BF0420704740F6E440C4F26C
:1037C0000240006800F00C01081FB0FA80F04009C8
:1037D000082908BF0220704790F88410012904BF0F
:1037E000022070472421C0F8881001680A680B681D
:1037F00022F0005223F001030B60002343660A60AD
:103800002021C0F8881080F8843000207047000024
:1038100090F88420012A04BF02207047B0B501232C
:10382000242280F88430C0F888200268D0F864E050
:10383000D2F800C01468BEF1000F24F00104146037
:10384000946824F0606441EA040191601BD091689F
:10385000936846F2644E5B0FC0F6000E46F26C456C
:103860001EF80340C0F60005EB5CE400B4FBF3F384
:10387000C1F34261A0F86A301EF80130695CDB00D8
:10388000B3FBF1F301E0A0F86A302021A0F8683022
:10389000C2F800C0C0F88810002180F88410002011
:1038A000B0BD000090F88420012A04BF02207047B8
:1038B000B0B50123242280F88430C0F88820026843
:1038C000D0F864E0D2F800C01468BEF1000F24F014
:1038D00001041460946824F0604441EA040191609A
:1038E0001BD09168936846F2644E5B0FC0F6000EE1
:1038F00046F26C451EF80340C0F60005EB5CE400A0
:10390000B4FBF3F3C1F34261A0F86A301EF8013052
:10391000695CDB00B3FBF1F301E0A0F86A30202121
:10392000A0F86830C2F800C0C0F88810002180F804
:1039300084100020B0BD000010B5D8B10446D0F806
:10394000880028B9002084F88400204600F026F87A
:103950002420C4F888002068A16A0268002922F0A7
:10396000010202601CBF204600F092FA204600F0DF
:1039700063FB08B1012010BD2168486820F4904025
:103980004860886820F02A008860086840F00102DA
:1039900020460A60BDE8104000F0EEBAB0B5BCB0F9
:1039A0000446002502A8D0213B95CDE93955CDE943
:1039B0003755FCF794FD206844F20041C4F2000141
:1039C000884201D03CB0B0BD022402A80395029405
:1039D0001A95FEF7ADFC002818BFFCF729FE40F64B
:1039E0008C40C4F20240016941F400310161016977
:1039F00001F4003101910199016841F00101016078
:103A0000006837A900F00100019001980C20CDE971
:103A100037040020CDE9390007203B900020C4F294
:103A20000220FCF7A3FE3CB0B0BD00002DE9F0433E
:103A300081B00446D0F8880020281EBF022001B0C3
:103A4000BDE8F083884600294FF0010018BF002A26
:103A500002D101B0BDE8F08320681D46816816469A
:103A6000090603D5816821F0800181600020C4F837
:103A700090002120C4F88800FCF746FFA4F85460A9
:103A8000A4F85660A1680746B1F5805F02D12069AD
:103A9000002852D0C1464FF00008B4F8560060B379
:103AA0006E1C0FE0B9F1000F1ED019F8010B216850
:103AB0008862B4F856000138A4F85600B4F85600ED
:103AC000D8B100BF2068C0690006EBD4002EF9D041
:103AD000FCF71AFF01464FF0030045B3C91BA9428A
:103AE00025D820680068EDE738F8020B21686FF3ED
:103AF0005F2088624FF00009DBE72068C06940065C
:103B000014D46E1C04E000BF2068C06940060DD4C8
:103B1000002EF9D0FCF7F8FE01464FF0030035B156
:103B2000C91BA94203D820680068EDE700202021C6
:103B3000C4F8881001B0BDE8F0834FF00009ACE78D
:103B4000FEE70000FEE70000FEE70000704700000F
:103B500070B540F62C46C4F2024656F82C1C0446BA
:103B600021F0806046F82C0CFCF7CEFE054600BF25
:103B700056F82C0C000105D5FCF7C6FE401B0228A8
:103B8000F6D958E0306843F60371884394E80E0094
:103B9000084340EA0220E16830604FF47E4202EBC5
:103BA00041212269581E4FF4FE0389B203EB024201
:103BB0006FF35F20084402F4FE0162694FF0FE4398
:103BC00003EB0262084402F0FE41084430613068B1
:103BD000A16920F00C00084330603068E16920F0F2
:103BE000200008433060606A316808433060306804
:103BF0004FF6F87120F0100030607069226A884337
:103C000040EAC2007061306840F01000306056F841
:103C10002C0C40F0806046F82C0CFCF775FE044636
:103C200056F82C0C000144BF002070BDFCF76CFE60
:103C3000001B0328F4D3032070BD000070B540F6CC
:103C40003046C4F2024656F8301C044621F080503B
:103C500046F8300CFCF758FE054600BF56F8300C0D
:103C6000800005D5FCF750FE401B0228F6D958E02D
:103C7000306843F60371884394E80E00084340EA35
:103C80000220E16830604FF47E4202EB412122695C
:103C9000581E4FF4FE0389B203EB02426FF35F201C
:103CA000084402F4FE0162694FF0FE4303EB026236
:103CB000084402F0FE41084470613068A16920F0B8
:103CC0000C00084330603068E16920F020000843B0
:103CD0003060606A31680843306030684FF6F871D0
:103CE00020F010003060B069226A884340EAC200C8
:103CF000B061306840F01000306056F8300C40F091
:103D0000805046F8300CFCF7FFFD044656F8300CA6
:103D1000800044BF002070BDFCF7F6FD001B0328A7
:103D2000F4D3032070BD000070470000FCF7F2BD23
:103D300010B59CB040F6100408A85021C4F202440B
:103D4000FCF7CDFB0020CDE90600CDE90400CDE96C
:103D50000200206820F030002060206800F0300071
:103D60000190019860680007FCD5402232200D9236
:103D70004FF480520890012011924FF480720DF19F
:103D8000500C0B900F92202202238CE80D00032090
:103D90000821CDE91703002408A80C911092CDE961
:103DA00012331991CDE91A44FFF7B0F9A8B91F20D1
:103DB000CDE9020402A80121CDE90444CDE906447D
:103DC000FEF75EFF48B942F20000C4F2020001684B
:103DD00021F0300101601CB010BDFCF729FC00008F
:103DE0004EF6885CCEF2000CDCF80010012241F4A3
:103DF0007001CCF8001040F60041C4F202410A60A4
:103E00000022CA610A620B684EF6E320CEF6E22079
:103E10001840086040F28020C0F201108A62CA6235
:103E20000A6348638A63C8630A6448648A640868EA
:103E300020F4802008600A654FF0006042F21C0107
:103E4000C4F202014CF8800C51F8040C420F062A0F
:103E500005D800F06040B0F1404F18BF70470868C7
:103E6000C0070BD042F63B20C0F6190041F8100CF9
:103E700046F67F60C4F65D4041F8100C086840F0DB
:103E800002000860086840F0010008607047000008
:103E9000816A0A070CD4CA0715D18A071ED44A07BB
:103EA00027D4CA0630D48A0639D44A0642D457E009
:103EB0000268D0F838C0536823F4004343EA0C0387
:103EC0005360CA07E9D00268D0F82CC0536823F4C5
:103ED000003343EA0C0353608A07E0D50268D0F848
:103EE00030C0536823F4803343EA0C0353604A071D
:103EF000D7D50268D0F834C0536823F4802343EA4E
:103F00000C035360CA06CED50268D0F83CC0936853
:103F100023F4805343EA0C0393608A06C5D50268F4
:103F2000D0F840C0936823F4005343EA0C03936035
:103F30004A0615D5D0F800C0436CDCF80420B3F570
:103F4000801F22F4801242EA0302CCF8042007D139
:103F5000DCF80420836C22F4C0021A43CCF804205D
:103F6000090658BF70470168C06C4A6822F40022F5
:103F70001043486070470000B0B582B0044600208E
:103F8000C4F89000FCF7C0FC2168054609680907E1
:103F90001AD56FF07E4C20464FF4001100222B46BC
:103FA000CDF800C000F04AF970B100BF206850E8B9
:103FB000000F216820F0800041E80002002AF5D1BE
:103FC00003202021882230E020680068400723D5A4
:103FD0006FF07E4C20464FF4800100222B46CDF836
:103FE00000C000F02BF9B8B1206850E8000F21683C
:103FF00020F4907041E80002002AF5D1206850E8D2
:10400000020F216820F0010041E80202002AF5D1E8
:10401000032020218C2208E02020C4F88800C4F866
:104020008C00002170220020E166A150002184F85C
:10403000841002B0B0BD000070B504462269D4E916
:104040000213006811436269E5690668114346F688
:10405000F312CCF6FF7232401143294301604168EC
:1040600042F2004C21F4405119434160A36940F0F1
:104070008051C5F2004C61451CBF266A33438668F7
:104080004FF2FF42C1F2FF1232401A438260C26A0D
:10409000636A22F00F021A4344F6FF73C4F200036E
:1040A0009842C26216DD43F2FF72C4F201029042EE
:1040B00027DC45F20002C4F20002904200F0AF801B
:1040C00046F20042C4F20002904260D120206145D5
:1040D0002CD05FE044F20042C4F20002904222D0B1
:1040E00044F60002C4F20002904200F0A28044F6BE
:1040F0000042C4F20002904249D10820614515D027
:1041000048E043F60002C4F20102904200F08C80C5
:1041100042F20042C4F20042904238D14FF4805043
:10412000614503D036E00220614533D100210025EE
:10413000FDF7DCFB00286AD0616A46F22642C0F631
:10414000000232F811206668B0FBF2F106EB46037C
:10415000012599425BD33303994258D800210023AB
:10416000FCF700F9090241EA1061000210EB560069
:1041700041F1000132460023FCF7F4F84FF60052FB
:10418000A0F54071C0F20F0291423BD33EE0002007
:104190006145CBD00021FDF7A9FBB5F5004F1CD13F
:1041A00090B3616A46F22642C0F6000232F811105E
:1041B0006268B0FBF1F0510801EB4000B0FBF2F097
:1041C0004FF6EF72A0F1100191421FD84FF6F07137
:1041D000C0F342020840104414E0A8B1616A46F2FC
:1041E0002642C0F6000232F811106268B0FBF1F00E
:1041F00000EB5200B0FBF2F04FF6EF72A0F11001AD
:10420000914203D82168C860002500E001254FF0E5
:104210000110A066002128466167A16770BD1020CB
:1042200061453FF483AFB5E7012061453FF47EAFC0
:10423000B0E7042061453FF479AFABE72DE9F043E7
:1042400081B004460068C0690840401AB0FA80F0A6
:104250004009904257D1DDF8208015460E46994618
:1042600008F1010709E000BF2068C0693040801BE9
:10427000B0FA80F04009A84245D1002FF4D0FCF7F5
:1042800043FB0146B8F1000F4FF003003CD0A1EB17
:104290000901414538D8206801684907E4D5402E16
:1042A00018BF802EE0D0C169090730D4C169090563
:1042B000DAD54FF400610162206850E8000F2168F0
:1042C00020F4907041E80002002AF5D14FF6FE700C
:1042D000CEF6FF70216851E8021F2268014042E8D3
:1042E0000213002BF6D1E06E012809D1206850E8B6
:1042F000000F216820F0100041E80002002AF5D1EB
:10430000032020212CE0002001B0BDE8F08308212B
:10431000016200BF206850E8000F216820F490700F
:1043200041E80002002AF5D14FF6FE70CEF6FF708C
:10433000216851E8021F2268014042E80213002B65
:10434000F6D1E06E012809D1206850E8000F2168FD
:1043500020F0100041E80002002AF5D101200821D8
:104360002022C4F88C200022E2666267C4F8901014
:1043700084F8842001B0BDE8F083000080B50020FF
:1043800000F08CFD40F27420C2F20000BDE88040D5
:10439000FCF77EBB2DE9F0474A78012A57D1D1F8C6
:1043A00018A00C690A7BA24528BFA246002A7CD02F
:1043B000CB780A6A022B40F0D38091F800E040F6F7
:1043C0003F7CC0F2FF7C50F82E30ACF59875A242CD
:1043D00003EA050440F2158148F28012224340F8B6
:1043E0002E200A6A46F20048A2EB0A020A62032261
:1043F00012FA8AF350F82E409F081AF003024FF089
:10440000FF3518BF05EB930763064FEA0A44C4F271
:10441000010800F1538158F83E30002F9BB248F854
:104420003E3058F83E3043EA040348F83E300B89EA
:10443000D1F8149003EB080600F05C817C424F46F3
:1044400057F8043B013446F8043BF9D353E10A7BA7
:10445000002A64D0CA78012A00F0C680022A1CBF54
:104460000120BDE8F087CB6940F63F7242F6D07775
:10447000C0F2FF72002B02EB070C00F0BF800B783C
:1044800044F2400650F823703740B74218BF002F5F
:1044900040F0B48050F82370A2F13006374048F263
:1044A000C006374340F8237055E0032212FA8AF71A
:1044B0004E69BA081AF003044FF0FF3518BF05EB38
:1044C0009702CF8846F2004CC4F2010C07EB0C05B2
:1044D00032B1524256F8047B013245F8047BF9D3DD
:1044E00064B1771E0026002217F8013F013CB3405B
:1044F0001A43230406F10806F6D12A600A785CF80C
:1045000032309BB24CF832305CF8323043EA0A4326
:104510004CF8323040F63F7CC0F2FF7C82E18A6981
:104520001AB9CA78002A00F0E28048F280030F78B6
:1045300040F63F72C0F2FF7250F82760A2F59875FE
:104540002E40334340F827300B698F699F428CBF60
:10455000FB1A00238B6142F6D07302EB030C4DE093
:10456000A2EB0A020A620F78032212FA8AF350F8C9
:1045700027409E081AF003024FF0FF3518BF05EBE5
:10458000930646F20045630640F63F7CC4F20105FF
:10459000C0F2FF7C4FEA0A436CD455F83740A4B20E
:1045A00045F8374055F8374043EA040345F83730BB
:1045B0000B894F692B443EB1764200BF57F8045B2C
:1045C000013643F8045BF9D3002A00F02B81013F48
:1045D0000026002517F8014F013AB4402543140482
:1045E00006F10806F6D11CE1002240F63F738A610D
:1045F00042F6D072C0F2FF7303EB020C4BF2800262
:1046000012E148F28003234340F82E3046F2004383
:10461000C4F2010353F83E400327A4B217FA82F70D
:1046200043F83E4053F83E40BE0844EA024412F0CC
:10463000030243F83E400D894FF0FF3418BF04EBEE
:1046400097064F692B442EB157F8045B013E43F89F
:10465000045BF9D1002A00F0E580013F0026002527
:1046600017F8014F013AB4402543140406F1080637
:10467000F6D1D6E005EBC7077C68A4B27C607C6805
:1046800043EA04037B604B894F692B4436B1764281
:1046900057F8045B013643F8045BF9D3002A00F0B5
:1046A000C180013F0026002517F8014F013AB440B0
:1046B0002543140406F10806F6D1B2E008EBCE0358
:1046C000002F5D68ADB25D605D6844EA05045C6022
:1046D0004B89D1F8149003EB080657D07C424F4623
:1046E00057F8043B013446F8043BF9D34FE048F255
:1046F00080131CE74F466AB1013F0024002500BF2C
:1047000017F8013F013AA3401D43130404F10804C4
:10471000F6D135600A690B6A09EB0A050024934259
:1047200008EBCE024D6188BFA3EB0A040C62576808
:104730004FF00306BFB25760576888BF534616FA5A
:1047400083F647EA03475760B70813F003024FF0B8
:10475000FF3318BF03EB96074B89434437B100BFC3
:1047600055F8046B013F43F8046BF9D1002A59D086
:104770006F1E0026002500BF17F8014F013AB44014
:104780002543140406F10806F6D14AE04F466AB103
:10479000013F0024002500BF17F8013F013AA34064
:1047A0001D43130404F10804F6D135600A690B6A4D
:1047B00009EB0A0500244D61934288BFA3EB0A046C
:1047C0000C6258F83E204FF0030492B248F83E20A5
:1047D00058F83E2088BF534614FA83F442EA034255
:1047E000A70848F83E2013F003024FF0FF3318BF2C
:1047F00003EB94070B89434437B100BF55F8046BB2
:10480000013F43F8046BF9D162B16F1E0026002509
:1048100017F8014F013AB4402543140406F1080685
:10482000F6D11D6048F2B002097850F8213003EA51
:104830000C035A4040F821200020BDE8F08700001A
:10484000406C704780B503F1030C4FEA9C0013F0F5
:10485000030E02F180424FF0FF3318BF03EB9C00C0
:1048600002F5B23250B10439043A00BF52F8043FA5
:10487000013841F8043FF9D104310432BEF1000F90
:1048800008BF80BD10680139002200BF20FA02F382
:1048900001F8013FAEF1010E5FEA0E4302F108029A
:1048A000F4D180BD002904BF8021C164002070477D
:1048B00080B503F1030C4FEA9C0013F0030E02F1E4
:1048C00080424FF0FF3318BF03EB9C0002F5B23C6F
:1048D00058B10439ACF1040251F8043F013842F8F0
:1048E000043FF9D1043102F1040CBEF1000F08BFFE
:1048F00080BD481E0021002210F8013FAEF1010EDC
:104900008B401A435FEA0E4301F10801F4D1CCF861
:10491000002080BDFEE7000080B5531C02F11F0C93
:104920004FEA530EC0003E2A88BF4FEA5C1E5FFA72
:104930008EFC4FF0FF3388BF53FA8EFC00EB8100F2
:1049400046F200414FEA8C23C4F201014FF4004EBD
:104950003E2A88BF4EEA8C2342581B0492B208BFFD
:104960004FF000431A44425080BD00002DE9F04F43
:1049700083B08A8891F802A06FF3DF224FF0010C18
:10498000C87801928CEADA124FEADA1440F245272D
:104990000AF00F0900F0030302F1020E0094023442
:1049A00000206FF00705C2F200074FF0000B00BFB8
:1049B0003A5D002A05F1080206D07E789E421FD19A
:1049C0003E784E451CD12AE0012B02D117F80E602B
:1049D000B6B93E78FF2E18BF4E4511D17E78FF2E16
:1049E00018BF9E420CD15FFA82FB4FF0000887F897
:1049F00000907B7007F804C0B8F1000F05D110E0FB
:104A00004FF00108B8F1000F0BD0062A4FF000005C
:104A100088BF0120013507F10407C9D301E05FFA1F
:104A200082FB4EF6F055C007CEF2000505D028688F
:104A3000C00700D000BE4FF0000BBBF1080F15D22D
:104A400046F20004C4F2010454F82B0047F270024D
:104A5000C978CFF60002104001F003010229484452
:104A600009D0032968D148F2806106E02868C007B0
:104A700066D000BE64E048F2800140EA0107019878
:104A80000DF10B010DF10A0200F0D0FF40F2662299
:104A9000C2F200021188084483B21080B3F5006F9F
:104AA00005D928684FF6FF71C00700D000BE009EF0
:104AB00004EBCB0086F0010200EB82004FF6FF739F
:104AC000D0F8002421F003019A4340F2F453C2F2DB
:104AD000000303EB49131144C0F8001403EB061262
:104AE0000198202190814FFA8AF082F80EB0B0F13F
:104AF000FF3FC8BF4FF4005179406FF070020028AB
:104B000048BF6FF4E04201EA02004EF20811CEF213
:104B100000014FF48062C1F88020BFF34F8FBFF3D4
:104B20006F8F44F82B00BFF34F8FBFF36F8F0A6076
:104B3000012003B0BDE8F08F2868C00700D000BE98
:104B4000002003B0BDE8F08F10B540F2F45C01F036
:104B50000F00C2F2000C0CEB401CC9090CEB011E4B
:104B60000C014CF804200022CEF80420AEF80830E6
:104B7000AEF80A2000F0A2FB012010BDB0B540F253
:104B8000F45C01F00F00C2F2000C0CEB401CC909F0
:104B90000CEB011E0C0100254CF80450CEF804204B
:104BA000AEF80830AEF80A5000F088FB0120B0BD26
:104BB0002DE9F04784B0054640788A46023805283A
:104BC00000F2D980DFE800F0032B15200D9740F2AA
:104BD0004810C2F200000021017041700171817023
:104BE000C9E040F24420C2F20000017801310170B6
:104BF000C1E040F24810C2F200000178002900F044
:104C00002D8101218170B6E040F24810C2F200000F
:104C10000178002900F0228100218170ABE040F290
:104C20008406C2F200063078FF2828D040F28008BF
:104C300046F240490027C2F20008C0F600090024ED
:104C400008E000BF30780134411CC9B28C4207F142
:104C5000240714D2C0B2844204D2D8F800003844E9
:104C600030B9EFE74FF0000008BF48460028E9D010
:104C7000026A002AE6D0287869689047E2E740F2A5
:104C80004817C2F20007B87840F2801840F20409D1
:104C90000028C2F20008C2F2000900F0A98000203A
:104CA000B8702978D8F800408DF804100521BAF1C1
:104CB000000F8DF805100390029002D1D9F8001072
:104CC0008847B9F8042004F1080001A9002301F085
:104CD00037F9BAF1000F064603D1D9F800100120C8
:104CE0008847002E7CD09DF804009DF805105246A0
:104CF00001F0BCFA7CE0297911F00F003BD040F2C2
:104D00004812C2F2000202EB400000EBD112D37D48
:104D100040F28402C2F20002177840F28002C2F22E
:104D20000002166846F24042C0F600029F4218BFD9
:104D3000002203EBC30488BF06EB8402DAB1D36917
:104D4000CBB1CB09C41814F8270F00F0FE00207077
:104D5000207800F0FB002070D76928786A79AB686A
:104D6000B84700287AD1207840F0010020702078E0
:104D700040F00400207040F28010C2F2000006688B
:104D8000BAF1000F06D140F20400C2F2000001683F
:104D90000020884740F20404C2F20004A28806F111
:104DA00008002946002301F0CBF8BAF1000F0646AF
:104DB00002D12168012088473EB12878697852469F
:104DC00004B0BDE8F04701F051BA4EF6F050CEF213
:104DD00000000068C00741D000BE04B0BDE8F08705
:104DE0004EF6F050CEF200000068C00700D000BEC2
:104DF000B879C00732D02878D8F800408DF8040080
:104E000003208DF805006868BAF1000F029003D105
:104E1000D9F8001000208847B9F8042004F10800F0
:104E200001A9002301F08CF8BAF1000F054603D167
:104E3000D9F80010012088474DB19DF804009DF875
:104E40000510524601F012FA04B0BDE8F0874EF6A4
:104E5000F050CEF200000068C00702D104B0BDE8F7
:104E6000F08700BE04B0BDE8F08700004EF2881065
:104E7000CEF200004FF480610160BFF34F8FBFF3AB
:104E80006F8F7047BFF34F8F4EF20810BFF36F8FD5
:104E9000CEF200004FF48061016070472DE9F04FC1
:104EA00089B046F24005C4F201056C68A0050ED534
:104EB0006FF400706860A8684FF440716FF3DF20F2
:104EC000ADF81810079006A80121FFF771FE6005E4
:104ED00006D4E00417D420052AD4E0053DD44DE0E3
:104EE0006FF48060686000F035FA4FF48070ADF8C0
:104EF000180000208DF81C0006A80121FFF758FEBD
:104F000009B0BDE8F08F2868012120F00400286076
:104F1000286820F0080028606FF4805068604FF423
:104F2000A060ADF8180006A8FFF742FE2005D4D512
:104F30002868012140F008002860286840F004003B
:104F400028606FF4006068604FF48060ADF818006E
:104F500006A8FFF72DFEE00510D540F2EC50C2F296
:104F60000000017839B1012903D12A6822F010022A
:104F70002A60013901706FF480706860019468687C
:104F8000000410D4019840040AD54EF6F050CEF239
:104F900000000068C00700D000BE6FF48040686069
:104FA00009B0BDE8F08F40F60F79A5F140044FF04D
:104FB000140805F57070C0F2FF79029013E000BF8D
:104FC00001F180004FF4E0618DF81C000020ADF885
:104FD00018108DF81D0006A801210892FFF7E8FDC2
:104FE00068680004CED5686800F00F0654F826B053
:104FF0005FEA0B4040F1C280CDF80C80039818B1F5
:10500000039801380390F9E75FEA0B5030D454F865
:10501000260040F2F45700EA090040F0800044F80E
:10502000260054F826A0029B0AF00F090AF48C40CF
:1050300003EBC601C2F20007B0F5884007EB491840
:1050400018BF012051F8202051F82010D8F8040092
:10505000C2F3094713FA81F100283CD000220792DD
:10506000042206923A4606AB00F06AFF3EE000BF1B
:10507000029A002302EBC60041684068C1F3094769
:1050800012FA80F004A93A4601F0AAF854F8260072
:10509000082F00EA090040F0800044F826000CD1F7
:1050A0004FF4C060ADF81800DDE90410CDE9071039
:1050B00006A80121FFF77CFD60E04EF6F050CEF22D
:1050C00000000068C00700D000BE002001210822B7
:1050D000FFF722FC52E0D8F80000B8F80A200023BD
:1050E0000244084611463A4601F07AF8B8F80A0038
:1050F000B8F80C2038449742A8F80A0022D3B8F830
:10510000081083B299421DD90AF4C063B3F5806FC9
:1051100008D0081A80B20121904238BF02463046BA
:10512000FFF7FAFB40F60F79C0F2FF7909F540501E
:1051300000EA0A004BF2800148404FF0140844F89E
:1051400026001BE030460121FFF7E6FBB8F80A0015
:105150004FF4E061ADF818100890002706A801216F
:105160008DF81C908DF81D70FFF722FD40F60F7929
:10517000C8F808704FF01408C0F2FF795FEA0B60BE
:105180007FF52EAF54F8260000EA090040F40040F5
:1051900044F8260054F8262040F2F45002F00F01A3
:1051A000C2F2000000EB411002F4C063B3F5806F5F
:1051B00000F1100012D1C37B002B3FF411AF01238B
:1051C00023EA921205EBC60303EB82020023C373AA
:1051D000D2F8C0336FF31943C2F8C0330389428950
:1051E00093423FF4EDAE314600F002F8F8E60000DD
:1051F0002DE9F04782B0054600896A898A4646F261
:105200000041C4F20101801AA1F5806880B2AE8924
:1052100058F82A70B04238BF064607F4C06900202B
:10522000B9F5806F08BFC7F380104FEACA0343EA9D
:10523000800043584418686811FA83F14FF0000366
:1052400038B10422019300926B46324600F05AFEB8
:1052500006E02868024408461146324600F0E2FFA4
:105260006889B9F5806F3044688120686FF39F26A4
:105270006FF3194040EA064048F2B001206004BFD5
:105280000120E87340F63F70C0F2FF70384048409C
:105290004EF20811CEF200014FF48062C1F8802076
:1052A000BFF34F8FBFF36F8F48F82A00BFF34F8FC4
:1052B000BFF36F8F0A6002B0BDE8F087F0B581B030
:1052C00040F2F452C2F2000202EB4010012900EB5E
:1052D0000110847B05D1214601B0BDE8F040FFF705
:1052E00087BF46F20006C4F2010656F82410028970
:1052F000858901F4C060AA4238BF154643F60F7293
:10530000C0F2FF72B0F5806F01EA020704D12046B7
:1053100000212A46FFF700FB204601212A46FFF71D
:10532000FBFA4EF20811CEF200014FF480624BF20C
:105330008000C1F880207840BFF34F8FBFF36F8F9C
:1053400046F82400BFF34F8FBFF36F8F0A6001B0A0
:10535000F0BD0000F0B581B046F20004C4F20104D3
:105360000020E06440F24520C2F20000C11E082285
:105370004FF6FF73C1F80330013A01F10401F9D18E
:1053800040F26625C2F2000540212980002200215A
:1053900009E000BF062A02F101024FF0000188BFB8
:1053A0000121082A1CD000EB82039F7847B15B786B
:1053B000002BEFD110F82230002BEBD110E000BF12
:1053C00010F82270FF2F18BF002FE3D15F78FF2F56
:1053D00018BF002FDED1002720F8227001229A701A
:1053E000C9074EF6F056CEF200061CBF31685FEAE0
:1053F000C17140F089800022002108E0062A02F1F4
:1054000001024FF0000188BF0121082A1CD000EBE7
:105410008203DF7847B15B78002BEFD110F82230A0
:10542000002BEBD110E000BF10F82270FF2F18BF47
:10543000002FE3D15F78FF2F18BF002FDED10027A8
:1054400020F822700120D870C8071CBF30685FEABE
:10545000C0705BD140F2F450C2F200004021002243
:1054600081818273818382770DF101016A46402038
:1054700000F0DCFA2F88384481B22880B1F5006F43
:1054800005D930684FF6FF77C00700D000BE0DF198
:1054900003010DF10202402000F0C8FA29880844F7
:1054A00082B22880B2F5006F05D93068C00700D0FD
:1054B00000BE4FF6FF7146F20440C4F201000268DC
:1054C0004FF6FF739A4327F003031A440260D4F89F
:1054D000000421F003016FF30F000844C4F8000436
:1054E000206847F27001CFF60001084042F2202107
:1054F00080EA0105002001210822FFF70DFA802033
:105500002560E06401B0F0BD00BE74E700BEA1E715
:1055100086B040F20008C4F20228FBF709FA002620
:1055200040F68C440596CDE90366CDE90166C4F2E8
:10553000024420684FF0200940F0010020602068FC
:10554000012700F001000090009801A94046CDF825
:1055500004900297FBF70AF9404620210022FBF74E
:10556000CDF9FEF7E5FB0596CDE90366CDE90166C9
:105570002068202140F0040020602068012200F013
:10558000040000900098206840F00100206020682E
:1055900000F0010000900098206840F002002060B8
:1055A000206808F5006400F0020000900098204692
:1055B000FBF7A4F9102001ADCDE9010620462946EC
:1055C0000396FBF7D3F820462946CDE90197CDE9AC
:1055D0000366FBF7CBF840F2585044F20042C2F2A7
:1055E00000004FF41651C4F200020C23C0E9002160
:1055F000C0E90266C0E90463C0E90666C0E908665E
:105600008662FEF799F9002840F08B8040F25850EE
:10561000C2F200000021FEF745F9002840F0818029
:1056200040F25850C2F200000021FEF7F1F80028C5
:1056300077D140F25850C2F20000FEF7CDF80028B2
:105640006FD145F6C0450024C0F2150504E000BF47
:10565000022C04F1010418D2404620210122FBF75C
:105660004DF901950198411E019108B100BFF9E77C
:10567000404620210022FBF741F901950198411E87
:1056800000280191E4D000BFF8E74CF2C060C0F2FE
:105690002D0001900198411E019108B100BFF9E76A
:1056A00040F25855C2F200051FA1284616224FF0BD
:1056B000FF33FEF7BBF946F27446C0F600061DE064
:1056C0003C203C27FBF714F8404620210022FBF742
:1056D00015F93C20FBF70CF8404620210122FBF78E
:1056E0000DF94FF44D743846FBF702F8404620217F
:1056F0000022FBF703F92046FAF7FAFF2846314665
:1057000010226423FEF792F904464046202101222C
:10571000FBF7F4F8002CD3D04FF496744FF42F77A6
:10572000E1E7FAF785FF00BF55415254204F4E4C38
:105730005920544553542053544152540D0A0000EB
:10574000002070470120704770B584B040F2880493
:10575000C2F200042046C021FAF7C1FE04F1400065
:10576000402500268DE8610004F128000021002278
:105770000023039500F09EF904F1800104F110006C
:105780008DE86200002101220023039500F092F9C8
:1057900004B070BD2DE9F04F83B04B798D18012B0B
:1057A0000E4616D18B790E46012B12D1CB790E46BF
:1057B0007BB90B78934201EB03060AD2327832446C
:1057C000AA4206D87278242A03D132781644AE420F
:1057D000F4D37278042A07D17279012A04D1B279FC
:1057E000032A01D1F27922B1002080B203B0BDE8D2
:1057F000F08F40F2880CC2F2000C9CF82A209CF832
:105800001230002A18BF0122002B18BF012302EA20
:1058100003070024012200BFD20708D0002F08BFD1
:1058200023460022002F4FF00104F5D100E0FF23B2
:105830001A0608D04EF6F050CEF200000068C007FD
:10584000D2D000BED0E7DAB2520052FA83F23379F6
:105850000CEB821A92010CF80200B278002B8AF845
:105860000120327806EB020467D0AC4265D20AF11F
:105870001C0200920AF1280202920AF134024FF04F
:10588000000801921DE0A1888AF8120000986FF3C9
:10589000DF218AF810B0AAF8141000F02FFA20784F
:1058A00008F101080444012249465846002A9BD0C9
:1058B000227833795FFA88F79F42144438BFAC42AC
:1058C0003BD222782244AA4237D86278052AEFD107
:1058D00089462146834600F0DBFCF8B194F90200CA
:1058E000B0F1FF3FCFDDA1888AF82A0001986FF35D
:1058F000DF218AF828B0AAF82C1000F0FFF90298EE
:1059000000F0FAF80028CAD14EF6F050CEF20000AE
:1059100000684946C0070DD10022C6E74EF6F05098
:10592000CEF200000068C00701D10022BCE700BE33
:105930000022B9E700BE0022B7E7601A55E7000071
:10594000B0B540F28804C2F20004002504F134002E
:10595000C4E90055C4E9025500F0D0F904F11C0077
:1059600084F82A5000F0CAF9A574B0BD70B540F2B1
:10597000880CC2F2000C9CF82A009CF81260401AB5
:1059800018BF0120761A18BF012600EA0605002478
:10599000012000BFC00715D0002D08BF26460020FB
:1059A000002D4FF00104F5D130060ED04EF6F05028
:1059B000CEF200000068C00704BF002070BD0020C8
:1059C00000BE70BDFF263006F0D1F5B2680050FA77
:1059D00086F00CEB801090F82A6000F110048E42E3
:1059E00011D100F1280652B9216A29B19AB204F105
:1059F0002400002300F0A4FA284600F039FC3046C9
:105A000000F07AF80FE04FF000006AB9A2788A42FD
:105A100018BF70BD20461D4600F0D4F818B92046C6
:105A2000294600F02BF9012070BD000080B54FF031
:105A3000000C01234FF0010E3E2888BF4FF0010CEF
:105A400084BF4FF01F0E0523704481F800C020FA78
:105A500003F1C8B29840117080BD00000178C907F9
:105A60000DD1017849070AD40178C90709D1017815
:105A7000012201F0040182EA910121B907E000202E
:105A80007047002119B1027842F004020270084602
:105A9000704700000178490751BF002101780122B9
:105AA00022EA010119B1027802F0FB0202700846F5
:105AB00070470000F0B581B08C46DDE90612002980
:105AC0008E46144618BF4FF0010E002A18BF01245D
:105AD00004EA0E04012C0BD180F801C000F10C0C7B
